{
  "contractName": "NVMCChief",
  "abi": [
    {
      "inputs": [
        {
          "internalType": "address",
          "name": "_depositToken",
          "type": "address"
        },
        {
          "internalType": "address",
          "name": "_rewardToken",
          "type": "address"
        }
      ],
      "stateMutability": "nonpayable",
      "type": "constructor"
    },
    {
      "anonymous": false,
      "inputs": [
        {
          "indexed": false,
          "internalType": "uint256",
          "name": "amount",
          "type": "uint256"
        },
        {
          "indexed": false,
          "internalType": "uint256",
          "name": "lengthInDays",
          "type": "uint256"
        }
      ],
      "name": "AddRewards",
      "type": "event"
    },
    {
      "anonymous": false,
      "inputs": [
        {
          "indexed": true,
          "internalType": "address",
          "name": "user",
          "type": "address"
        },
        {
          "indexed": false,
          "internalType": "uint256",
          "name": "amount",
          "type": "uint256"
        }
      ],
      "name": "ClaimReward",
      "type": "event"
    },
    {
      "anonymous": false,
      "inputs": [
        {
          "indexed": true,
          "internalType": "address",
          "name": "user",
          "type": "address"
        },
        {
          "indexed": false,
          "internalType": "uint256",
          "name": "amount",
          "type": "uint256"
        }
      ],
      "name": "Deposit",
      "type": "event"
    },
    {
      "anonymous": false,
      "inputs": [
        {
          "indexed": true,
          "internalType": "address",
          "name": "previousOwner",
          "type": "address"
        },
        {
          "indexed": true,
          "internalType": "address",
          "name": "newOwner",
          "type": "address"
        }
      ],
      "name": "OwnershipTransferred",
      "type": "event"
    },
    {
      "anonymous": false,
      "inputs": [
        {
          "indexed": false,
          "internalType": "uint256",
          "name": "amount",
          "type": "uint256"
        }
      ],
      "name": "Skim",
      "type": "event"
    },
    {
      "anonymous": false,
      "inputs": [
        {
          "indexed": true,
          "internalType": "address",
          "name": "user",
          "type": "address"
        },
        {
          "indexed": false,
          "internalType": "uint256",
          "name": "amount",
          "type": "uint256"
        }
      ],
      "name": "Withdraw",
      "type": "event"
    },
    {
      "inputs": [],
      "name": "accumulatedRewardPerShare",
      "outputs": [
        {
          "internalType": "uint256",
          "name": "",
          "type": "uint256"
        }
      ],
      "stateMutability": "view",
      "type": "function"
    },
    {
      "inputs": [],
      "name": "depositToken",
      "outputs": [
        {
          "internalType": "contract IERC20",
          "name": "",
          "type": "address"
        }
      ],
      "stateMutability": "view",
      "type": "function"
    },
    {
      "inputs": [],
      "name": "lastRewardTimestamp",
      "outputs": [
        {
          "internalType": "uint256",
          "name": "",
          "type": "uint256"
        }
      ],
      "stateMutability": "view",
      "type": "function"
    },
    {
      "inputs": [],
      "name": "owner",
      "outputs": [
        {
          "internalType": "address",
          "name": "",
          "type": "address"
        }
      ],
      "stateMutability": "view",
      "type": "function"
    },
    {
      "inputs": [],
      "name": "renounceOwnership",
      "outputs": [],
      "stateMutability": "nonpayable",
      "type": "function"
    },
    {
      "inputs": [],
      "name": "rewardPerSecond",
      "outputs": [
        {
          "internalType": "uint256",
          "name": "",
          "type": "uint256"
        }
      ],
      "stateMutability": "view",
      "type": "function"
    },
    {
      "inputs": [],
      "name": "rewardPeriodEndTimestamp",
      "outputs": [
        {
          "internalType": "uint256",
          "name": "",
          "type": "uint256"
        }
      ],
      "stateMutability": "view",
      "type": "function"
    },
    {
      "inputs": [],
      "name": "rewardToken",
      "outputs": [
        {
          "internalType": "contract IERC20",
          "name": "",
          "type": "address"
        }
      ],
      "stateMutability": "view",
      "type": "function"
    },
    {
      "inputs": [],
      "name": "totalStaked",
      "outputs": [
        {
          "internalType": "uint256",
          "name": "",
          "type": "uint256"
        }
      ],
      "stateMutability": "view",
      "type": "function"
    },
    {
      "inputs": [
        {
          "internalType": "address",
          "name": "newOwner",
          "type": "address"
        }
      ],
      "name": "transferOwnership",
      "outputs": [],
      "stateMutability": "nonpayable",
      "type": "function"
    },
    {
      "inputs": [
        {
          "internalType": "uint256",
          "name": "_rewardsAmount",
          "type": "uint256"
        },
        {
          "internalType": "uint256",
          "name": "_lengthInDays",
          "type": "uint256"
        }
      ],
      "name": "addRewards",
      "outputs": [],
      "stateMutability": "nonpayable",
      "type": "function"
    },
    {
      "inputs": [],
      "name": "updateRewards",
      "outputs": [],
      "stateMutability": "nonpayable",
      "type": "function"
    },
    {
      "inputs": [
        {
          "internalType": "uint256",
          "name": "_amount",
          "type": "uint256"
        }
      ],
      "name": "deposit",
      "outputs": [],
      "stateMutability": "nonpayable",
      "type": "function"
    },
    {
      "inputs": [
        {
          "internalType": "uint256",
          "name": "_amount",
          "type": "uint256"
        }
      ],
      "name": "withdraw",
      "outputs": [],
      "stateMutability": "nonpayable",
      "type": "function"
    },
    {
      "inputs": [],
      "name": "claim",
      "outputs": [],
      "stateMutability": "nonpayable",
      "type": "function"
    },
    {
      "inputs": [],
      "name": "skim",
      "outputs": [],
      "stateMutability": "nonpayable",
      "type": "function"
    },
    {
      "inputs": [
        {
          "internalType": "address",
          "name": "_user",
          "type": "address"
        }
      ],
      "name": "pendingRewards",
      "outputs": [
        {
          "internalType": "uint256",
          "name": "",
          "type": "uint256"
        }
      ],
      "stateMutability": "view",
      "type": "function"
    },
    {
      "inputs": [],
      "name": "getFrontendView",
      "outputs": [
        {
          "internalType": "uint256",
          "name": "_rewardPerSecond",
          "type": "uint256"
        },
        {
          "internalType": "uint256",
          "name": "_secondsLeft",
          "type": "uint256"
        },
        {
          "internalType": "uint256",
          "name": "_deposited",
          "type": "uint256"
        },
        {
          "internalType": "uint256",
          "name": "_pending",
          "type": "uint256"
        }
      ],
      "stateMutability": "view",
      "type": "function"
    }
  ],
  "bytecode": "0x6080604052604051620000129062000200565b604051809103906000f0801580156200002f573d6000803e3d6000fd5b50600160006101000a81548173ffffffffffffffffffffffffffffffffffffffff021916908373ffffffffffffffffffffffffffffffffffffffff1602179055503480156200007d57600080fd5b50604051620040e4380380620040e483398181016040526040811015620000a357600080fd5b8101908080519060200190929190805190602001909291905050506000620000d0620001f860201b60201c565b9050806000806101000a81548173ffffffffffffffffffffffffffffffffffffffff021916908373ffffffffffffffffffffffffffffffffffffffff1602179055508073ffffffffffffffffffffffffffffffffffffffff16600073ffffffffffffffffffffffffffffffffffffffff167f8be0079c531659141344cd1fd0a4f28419497f9722a3daafe3b4186f6b6457e060405160405180910390a35081600360006101000a81548173ffffffffffffffffffffffffffffffffffffffff021916908373ffffffffffffffffffffffffffffffffffffffff16021790555080600460006101000a81548173ffffffffffffffffffffffffffffffffffffffff021916908373ffffffffffffffffffffffffffffffffffffffff16021790555050506200020e565b600033905090565b611f1d80620021c783390190565b611fa9806200021e6000396000f3fe608060405234801561001057600080fd5b50600436106101165760003560e01c80638f10369a116100a2578063cfc2b32011610071578063cfc2b320146102ec578063f2fde38b1461030a578063f7c618c11461034e578063f8077fae14610382578063fc41aa09146103a057610116565b80638f10369a14610239578063abed2e7f14610257578063b6b55f251461028a578063c89039c5146102b857610116565b80633e158b0c116100e95780633e158b0c146101c95780634e71d92d146101d3578063715018a6146101dd578063817b1cd2146101e75780638da5cb5b1461020557610116565b80631dd19cb41461011b5780632e1a7d4d1461012557806331d7a2621461015357806336d42195146101ab575b600080fd5b6101236103d8565b005b6101516004803603602081101561013b57600080fd5b81019080803590602001909291905050506106ee565b005b6101956004803603602081101561016957600080fd5b81019080803573ffffffffffffffffffffffffffffffffffffffff169060200190929190505050610b80565b6040518082815260200191505060405180910390f35b6101b3610ce6565b6040518082815260200191505060405180910390f35b6101d1610cec565b005b6101db610dd1565b005b6101e561106e565b005b6101ef6111db565b6040518082815260200191505060405180910390f35b61020d6111e1565b604051808273ffffffffffffffffffffffffffffffffffffffff16815260200191505060405180910390f35b61024161120a565b6040518082815260200191505060405180910390f35b61025f611210565b6040518085815260200184815260200183815260200182815260200194505050505060405180910390f35b6102b6600480360360208110156102a057600080fd5b81019080803590602001909291905050506112a7565b005b6102c0611725565b604051808273ffffffffffffffffffffffffffffffffffffffff16815260200191505060405180910390f35b6102f461174b565b6040518082815260200191505060405180910390f35b61034c6004803603602081101561032057600080fd5b81019080803573ffffffffffffffffffffffffffffffffffffffff169060200190929190505050611751565b005b610356611943565b604051808273ffffffffffffffffffffffffffffffffffffffff16815260200191505060405180910390f35b61038a611969565b6040518082815260200191505060405180910390f35b6103d6600480360360408110156103b657600080fd5b81019080803590602001909291908035906020019092919050505061196f565b005b6103e0611c92565b73ffffffffffffffffffffffffffffffffffffffff166103fe6111e1565b73ffffffffffffffffffffffffffffffffffffffff1614610487576040517f08c379a00000000000000000000000000000000000000000000000000000000081526004018080602001828103825260208152602001807f4f776e61626c653a2063616c6c6572206973206e6f7420746865206f776e657281525060200191505060405180910390fd5b6000600360009054906101000a900473ffffffffffffffffffffffffffffffffffffffff1673ffffffffffffffffffffffffffffffffffffffff166370a08231306040518263ffffffff1660e01b8152600401808273ffffffffffffffffffffffffffffffffffffffff16815260200191505060206040518083038186803b15801561051257600080fd5b505afa158015610526573d6000803e3d6000fd5b505050506040513d602081101561053c57600080fd5b810190808051906020019092919050505090506005548111156106eb57600061057060055483611c9a90919063ffffffff16565b9050600360009054906101000a900473ffffffffffffffffffffffffffffffffffffffff1673ffffffffffffffffffffffffffffffffffffffff1663a9059cbb33836040518363ffffffff1660e01b8152600401808373ffffffffffffffffffffffffffffffffffffffff16815260200182815260200192505050602060405180830381600087803b15801561060557600080fd5b505af1158015610619573d6000803e3d6000fd5b505050506040513d602081101561062f57600080fd5b81019080805190602001909291905050506106b2576040517f08c379a000000000000000000000000000000000000000000000000000000000815260040180806020018281038252601a8152602001807f4e564d4343686965663a207472616e73666572206661696c656400000000000081525060200191505060405180910390fd5b7f09639ca13db231feb5ad02aa7a3e9d59549523814fbf88e0f7b51412c7d48251816040518082815260200191505060405180910390a1505b50565b6000600260003373ffffffffffffffffffffffffffffffffffffffff1673ffffffffffffffffffffffffffffffffffffffff168152602001908152602001600020905081816000015410156107ab576040517f08c379a000000000000000000000000000000000000000000000000000000000815260040180806020018281038252601d8152602001807f4e564d4343686965663a2062616c616e6365206e6f7420656e6f75676800000081525060200191505060405180910390fd5b6107b3610cec565b60006108108260010154610802629896806107f464e8d4a510006107e66009548960000154611d1d90919063ffffffff16565b611da390919063ffffffff16565b611da390919063ffffffff16565b611c9a90919063ffffffff16565b9050600460009054906101000a900473ffffffffffffffffffffffffffffffffffffffff1673ffffffffffffffffffffffffffffffffffffffff1663a9059cbb33836040518363ffffffff1660e01b8152600401808373ffffffffffffffffffffffffffffffffffffffff16815260200182815260200192505050602060405180830381600087803b1580156108a557600080fd5b505af11580156108b9573d6000803e3d6000fd5b505050506040513d60208110156108cf57600080fd5b8101908080519060200190929190505050610935576040517f08c379a0000000000000000000000000000000000000000000000000000000008152600401808060200182810382526021815260200180611eb56021913960400191505060405180910390fd5b3373ffffffffffffffffffffffffffffffffffffffff167fba8de60c3403ec381d1d484652ea1980e3c3e56359195c92525bff4ce47ad98e826040518082815260200191505060405180910390a261099a838360000154611c9a90919063ffffffff16565b82600001819055506109b783600554611c9a90919063ffffffff16565b600581905550610a02629896806109f464e8d4a510006109e66009548760000154611d1d90919063ffffffff16565b611da390919063ffffffff16565b611da390919063ffffffff16565b8260010181905550600360009054906101000a900473ffffffffffffffffffffffffffffffffffffffff1673ffffffffffffffffffffffffffffffffffffffff1663a9059cbb33856040518363ffffffff1660e01b8152600401808373ffffffffffffffffffffffffffffffffffffffff16815260200182815260200192505050602060405180830381600087803b158015610a9d57600080fd5b505af1158015610ab1573d6000803e3d6000fd5b505050506040513d6020811015610ac757600080fd5b8101908080519060200190929190505050610b2d576040517f08c379a0000000000000000000000000000000000000000000000000000000008152600401808060200182810382526024815260200180611f506024913960400191505060405180910390fd5b3373ffffffffffffffffffffffffffffffffffffffff167f884edad9ce6fa2440d8a54cc123490eb96d2768479d49ff9c7366125a9424364846040518082815260200191505060405180910390a2505050565b600080600260008473ffffffffffffffffffffffffffffffffffffffff1673ffffffffffffffffffffffffffffffffffffffff16815260200190815260200160002090506000600954905060085442118015610be0575060065460085411155b8015610bef5750600060055414155b15610c84576000600654421115610c0a576006549050610c0e565b4290505b6000610c2560085483611c9a90919063ffffffff16565b90506000610c3e60075483611d1d90919063ffffffff16565b9050610c7e610c6f600554610c6164e8d4a5100085611d1d90919063ffffffff16565b611da390919063ffffffff16565b85611e2c90919063ffffffff16565b93505050505b610cdd8260010154610ccf62989680610cc164e8d4a51000610cb3878960000154611d1d90919063ffffffff16565b611da390919063ffffffff16565b611da390919063ffffffff16565b611c9a90919063ffffffff16565b92505050919050565b60095481565b6008544211610cfa57610dcf565b60006005541480610d0e5750600654600854115b15610d1f5742600881905550610dcf565b6000600654421115610d35576006549050610d39565b4290505b6000610d5060085483611c9a90919063ffffffff16565b90506000610d6960075483611d1d90919063ffffffff16565b9050610dab610d9a600554610d8c64e8d4a5100085611d1d90919063ffffffff16565b611da390919063ffffffff16565b600954611e2c90919063ffffffff16565b60098190555042600881905550600654421115610dcb5760006007819055505b5050505b565b6000600260003373ffffffffffffffffffffffffffffffffffffffff1673ffffffffffffffffffffffffffffffffffffffff1681526020019081526020016000209050600081600001541415610e27575061106c565b610e2f610cec565b6000610e8c8260010154610e7e62989680610e7064e8d4a51000610e626009548960000154611d1d90919063ffffffff16565b611da390919063ffffffff16565b611da390919063ffffffff16565b611c9a90919063ffffffff16565b9050600460009054906101000a900473ffffffffffffffffffffffffffffffffffffffff1673ffffffffffffffffffffffffffffffffffffffff1663a9059cbb33836040518363ffffffff1660e01b8152600401808373ffffffffffffffffffffffffffffffffffffffff16815260200182815260200192505050602060405180830381600087803b158015610f2157600080fd5b505af1158015610f35573d6000803e3d6000fd5b505050506040513d6020811015610f4b57600080fd5b8101908080519060200190929190505050610fce576040517f08c379a000000000000000000000000000000000000000000000000000000000815260040180806020018281038252601a8152602001807f4e564d4343686965663a207472616e73666572206661696c656400000000000081525060200191505060405180910390fd5b3373ffffffffffffffffffffffffffffffffffffffff167fba8de60c3403ec381d1d484652ea1980e3c3e56359195c92525bff4ce47ad98e826040518082815260200191505060405180910390a26110616298968061105364e8d4a510006110456009548760000154611d1d90919063ffffffff16565b611da390919063ffffffff16565b611da390919063ffffffff16565b826001018190555050505b565b611076611c92565b73ffffffffffffffffffffffffffffffffffffffff166110946111e1565b73ffffffffffffffffffffffffffffffffffffffff161461111d576040517f08c379a00000000000000000000000000000000000000000000000000000000081526004018080602001828103825260208152602001807f4f776e61626c653a2063616c6c6572206973206e6f7420746865206f776e657281525060200191505060405180910390fd5b600073ffffffffffffffffffffffffffffffffffffffff1660008054906101000a900473ffffffffffffffffffffffffffffffffffffffff1673ffffffffffffffffffffffffffffffffffffffff167f8be0079c531659141344cd1fd0a4f28419497f9722a3daafe3b4186f6b6457e060405160405180910390a360008060006101000a81548173ffffffffffffffffffffffffffffffffffffffff021916908373ffffffffffffffffffffffffffffffffffffffff160217905550565b60055481565b60008060009054906101000a900473ffffffffffffffffffffffffffffffffffffffff16905090565b60075481565b60008060008060065442116112515761123442600654611c9a90919063ffffffff16565b925061124e62989680600754611da390919063ffffffff16565b93505b600260003373ffffffffffffffffffffffffffffffffffffffff1673ffffffffffffffffffffffffffffffffffffffff16815260200190815260200160002060000154915061129f33610b80565b905090919293565b6000600260003373ffffffffffffffffffffffffffffffffffffffff1673ffffffffffffffffffffffffffffffffffffffff16815260200190815260200160002090506112f2610cec565b6000816000015411156114ee57600061135c826001015461134e6298968061134064e8d4a510006113326009548960000154611d1d90919063ffffffff16565b611da390919063ffffffff16565b611da390919063ffffffff16565b611c9a90919063ffffffff16565b9050600460009054906101000a900473ffffffffffffffffffffffffffffffffffffffff1673ffffffffffffffffffffffffffffffffffffffff1663a9059cbb33836040518363ffffffff1660e01b8152600401808373ffffffffffffffffffffffffffffffffffffffff16815260200182815260200192505050602060405180830381600087803b1580156113f157600080fd5b505af1158015611405573d6000803e3d6000fd5b505050506040513d602081101561141b57600080fd5b810190808051906020019092919050505061149e576040517f08c379a000000000000000000000000000000000000000000000000000000000815260040180806020018281038252601a8152602001807f4e564d4343686965663a207472616e73666572206661696c656400000000000081525060200191505060405180910390fd5b3373ffffffffffffffffffffffffffffffffffffffff167fba8de60c3403ec381d1d484652ea1980e3c3e56359195c92525bff4ce47ad98e826040518082815260200191505060405180910390a2505b611505828260000154611e2c90919063ffffffff16565b816000018190555061152282600554611e2c90919063ffffffff16565b60058190555061156d6298968061155f64e8d4a510006115516009548660000154611d1d90919063ffffffff16565b611da390919063ffffffff16565b611da390919063ffffffff16565b8160010181905550600360009054906101000a900473ffffffffffffffffffffffffffffffffffffffff1673ffffffffffffffffffffffffffffffffffffffff166323b872dd3330856040518463ffffffff1660e01b8152600401808473ffffffffffffffffffffffffffffffffffffffff1681526020018373ffffffffffffffffffffffffffffffffffffffff1681526020018281526020019350505050602060405180830381600087803b15801561162657600080fd5b505af115801561163a573d6000803e3d6000fd5b505050506040513d602081101561165057600080fd5b81019080805190602001909291905050506116d3576040517f08c379a000000000000000000000000000000000000000000000000000000000815260040180806020018281038252601e8152602001807f4e564d4343686965663a207472616e7366657246726f6d206661696c6564000081525060200191505060405180910390fd5b3373ffffffffffffffffffffffffffffffffffffffff167fe1fffcc4923d04b559f4d29a8bfc6cda04eb5b0d3c460751c2402c5c5cc9109c836040518082815260200191505060405180910390a25050565b600360009054906101000a900473ffffffffffffffffffffffffffffffffffffffff1681565b60065481565b611759611c92565b73ffffffffffffffffffffffffffffffffffffffff166117776111e1565b73ffffffffffffffffffffffffffffffffffffffff1614611800576040517f08c379a00000000000000000000000000000000000000000000000000000000081526004018080602001828103825260208152602001807f4f776e61626c653a2063616c6c6572206973206e6f7420746865206f776e657281525060200191505060405180910390fd5b600073ffffffffffffffffffffffffffffffffffffffff168173ffffffffffffffffffffffffffffffffffffffff161415611886576040517f08c379a0000000000000000000000000000000000000000000000000000000008152600401808060200182810382526026815260200180611ed66026913960400191505060405180910390fd5b8073ffffffffffffffffffffffffffffffffffffffff1660008054906101000a900473ffffffffffffffffffffffffffffffffffffffff1673ffffffffffffffffffffffffffffffffffffffff167f8be0079c531659141344cd1fd0a4f28419497f9722a3daafe3b4186f6b6457e060405160405180910390a3806000806101000a81548173ffffffffffffffffffffffffffffffffffffffff021916908373ffffffffffffffffffffffffffffffffffffffff16021790555050565b600460009054906101000a900473ffffffffffffffffffffffffffffffffffffffff1681565b60085481565b611977611c92565b73ffffffffffffffffffffffffffffffffffffffff166119956111e1565b73ffffffffffffffffffffffffffffffffffffffff1614611a1e576040517f08c379a00000000000000000000000000000000000000000000000000000000081526004018080602001828103825260208152602001807f4f776e61626c653a2063616c6c6572206973206e6f7420746865206f776e657281525060200191505060405180910390fd5b6006544211611a78576040517f08c379a0000000000000000000000000000000000000000000000000000000008152600401808060200182810382526033815260200180611f1d6033913960400191505060405180910390fd5b611a80610cec565b611aa8611a996201518083611d1d90919063ffffffff16565b42611e2c90919063ffffffff16565b600681905550611aeb62015180611add83611acf6298968087611d1d90919063ffffffff16565b611da390919063ffffffff16565b611da390919063ffffffff16565b600781905550600460009054906101000a900473ffffffffffffffffffffffffffffffffffffffff1673ffffffffffffffffffffffffffffffffffffffff166323b872dd3330856040518463ffffffff1660e01b8152600401808473ffffffffffffffffffffffffffffffffffffffff1681526020018373ffffffffffffffffffffffffffffffffffffffff1681526020018281526020019350505050602060405180830381600087803b158015611ba257600080fd5b505af1158015611bb6573d6000803e3d6000fd5b505050506040513d6020811015611bcc57600080fd5b8101908080519060200190929190505050611c4f576040517f08c379a000000000000000000000000000000000000000000000000000000000815260040180806020018281038252601a8152602001807f4e564d4343686965663a207472616e73666572206661696c656400000000000081525060200191505060405180910390fd5b7f035a6817755d9d163087d4649b27315908b801d1f5e33071a44f1fc0f7a871b38282604051808381526020018281526020019250505060405180910390a15050565b600033905090565b600082821115611d12576040517f08c379a000000000000000000000000000000000000000000000000000000000815260040180806020018281038252601e8152602001807f536166654d6174683a207375627472616374696f6e206f766572666c6f77000081525060200191505060405180910390fd5b818303905092915050565b600080831415611d305760009050611d9d565b6000828402905082848281611d4157fe5b0414611d98576040517f08c379a0000000000000000000000000000000000000000000000000000000008152600401808060200182810382526021815260200180611efc6021913960400191505060405180910390fd5b809150505b92915050565b6000808211611e1a576040517f08c379a000000000000000000000000000000000000000000000000000000000815260040180806020018281038252601a8152602001807f536166654d6174683a206469766973696f6e206279207a65726f00000000000081525060200191505060405180910390fd5b818381611e2357fe5b04905092915050565b600080828401905083811015611eaa576040517f08c379a000000000000000000000000000000000000000000000000000000000815260040180806020018281038252601b8152602001807f536166654d6174683a206164646974696f6e206f766572666c6f77000000000081525060200191505060405180910390fd5b809150509291505056fe4e564d4343686965663a20726577617264207472616e73666572206661696c65644f776e61626c653a206e6577206f776e657220697320746865207a65726f2061646472657373536166654d6174683a206d756c7469706c69636174696f6e206f766572666c6f774e564d4343686965663a2063616e2774206164642072657761726473206265666f726520706572696f642066696e69736865644e564d4343686965663a206465706f736974207769746864726177616c206661696c6564a264697066735822122037947d038aa79b6f7ae2286e27aad2cc6989fe1b3b9483faf2cb406e376dac5264736f6c6343000706003360806040523480156200001157600080fd5b506040518060400160405280601181526020017f4e564d4353205374616b6520546f6b656e0000000000000000000000000000008152506040518060400160405280600581526020017f4e564d43530000000000000000000000000000000000000000000000000000008152508160039080519060200190620000969291906200018d565b508060049080519060200190620000af9291906200018d565b506012600560006101000a81548160ff021916908360ff16021790555050506000620000e06200018560201b60201c565b905080600560016101000a81548173ffffffffffffffffffffffffffffffffffffffff021916908373ffffffffffffffffffffffffffffffffffffffff1602179055508073ffffffffffffffffffffffffffffffffffffffff16600073ffffffffffffffffffffffffffffffffffffffff167f8be0079c531659141344cd1fd0a4f28419497f9722a3daafe3b4186f6b6457e060405160405180910390a35062000243565b600033905090565b828054600181600116156101000203166002900490600052602060002090601f016020900481019282620001c5576000855562000211565b82601f10620001e057805160ff191683800117855562000211565b8280016001018555821562000211579182015b8281111562000210578251825591602001919060010190620001f3565b5b50905062000220919062000224565b5090565b5b808211156200023f57600081600090555060010162000225565b5090565b611cca80620002536000396000f3fe608060405234801561001057600080fd5b50600436106101215760003560e01c8063682bc28e116100ad57806395d89b411161007157806395d89b4114610554578063a457c2d7146105d7578063a9059cbb1461063b578063dd62ed3e1461069f578063f2fde38b1461071757610121565b8063682bc28e1461042057806370a0823114610464578063715018a6146104bc57806386641ab7146104c65780638da5cb5b1461052057610121565b8063313ce567116100f4578063313ce567146102af57806339509351146102d057806339f005aa146103345780633b337b7c1461037857806340c10f19146103d257610121565b806306fdde0314610126578063095ea7b3146101a957806318160ddd1461020d57806323b872dd1461022b575b600080fd5b61012e61075b565b6040518080602001828103825283818151815260200191508051906020019080838360005b8381101561016e578082015181840152602081019050610153565b50505050905090810190601f16801561019b5780820380516001836020036101000a031916815260200191505b509250505060405180910390f35b6101f5600480360360408110156101bf57600080fd5b81019080803573ffffffffffffffffffffffffffffffffffffffff169060200190929190803590602001909291905050506107fd565b60405180821515815260200191505060405180910390f35b61021561081b565b6040518082815260200191505060405180910390f35b6102976004803603606081101561024157600080fd5b81019080803573ffffffffffffffffffffffffffffffffffffffff169060200190929190803573ffffffffffffffffffffffffffffffffffffffff16906020019092919080359060200190929190505050610825565b60405180821515815260200191505060405180910390f35b6102b76108fe565b604051808260ff16815260200191505060405180910390f35b61031c600480360360408110156102e657600080fd5b81019080803573ffffffffffffffffffffffffffffffffffffffff16906020019092919080359060200190929190505050610915565b60405180821515815260200191505060405180910390f35b6103766004803603602081101561034a57600080fd5b81019080803573ffffffffffffffffffffffffffffffffffffffff1690602001909291905050506109c8565b005b6103ba6004803603602081101561038e57600080fd5b81019080803573ffffffffffffffffffffffffffffffffffffffff169060200190929190505050610b2f565b60405180821515815260200191505060405180910390f35b61041e600480360360408110156103e857600080fd5b81019080803573ffffffffffffffffffffffffffffffffffffffff16906020019092919080359060200190929190505050610b4f565b005b6104626004803603602081101561043657600080fd5b81019080803573ffffffffffffffffffffffffffffffffffffffff169060200190929190505050610bf7565b005b6104a66004803603602081101561047a57600080fd5b81019080803573ffffffffffffffffffffffffffffffffffffffff169060200190929190505050610d5e565b6040518082815260200191505060405180910390f35b6104c4610da6565b005b610508600480360360208110156104dc57600080fd5b81019080803573ffffffffffffffffffffffffffffffffffffffff169060200190929190505050610f16565b60405180821515815260200191505060405180910390f35b610528610f6c565b604051808273ffffffffffffffffffffffffffffffffffffffff16815260200191505060405180910390f35b61055c610f96565b6040518080602001828103825283818151815260200191508051906020019080838360005b8381101561059c578082015181840152602081019050610581565b50505050905090810190601f1680156105c95780820380516001836020036101000a031916815260200191505b509250505060405180910390f35b610623600480360360408110156105ed57600080fd5b81019080803573ffffffffffffffffffffffffffffffffffffffff16906020019092919080359060200190929190505050611038565b60405180821515815260200191505060405180910390f35b6106876004803603604081101561065157600080fd5b81019080803573ffffffffffffffffffffffffffffffffffffffff16906020019092919080359060200190929190505050611105565b60405180821515815260200191505060405180910390f35b610701600480360360408110156106b557600080fd5b81019080803573ffffffffffffffffffffffffffffffffffffffff169060200190929190803573ffffffffffffffffffffffffffffffffffffffff169060200190929190505050611123565b6040518082815260200191505060405180910390f35b6107596004803603602081101561072d57600080fd5b81019080803573ffffffffffffffffffffffffffffffffffffffff1690602001909291905050506111aa565b005b606060038054600181600116156101000203166002900480601f0160208091040260200160405190810160405280929190818152602001828054600181600116156101000203166002900480156107f35780601f106107c8576101008083540402835291602001916107f3565b820191906000526020600020905b8154815290600101906020018083116107d657829003601f168201915b5050505050905090565b600061081161080a61139f565b84846113a7565b6001905092915050565b6000600254905090565b600061083284848461159e565b6108f38461083e61139f565b6108ee85604051806060016040528060288152602001611bff60289139600160008b73ffffffffffffffffffffffffffffffffffffffff1673ffffffffffffffffffffffffffffffffffffffff16815260200190815260200160002060006108a461139f565b73ffffffffffffffffffffffffffffffffffffffff1673ffffffffffffffffffffffffffffffffffffffff1681526020019081526020016000205461185f9092919063ffffffff16565b6113a7565b600190509392505050565b6000600560009054906101000a900460ff16905090565b60006109be61092261139f565b846109b9856001600061093361139f565b73ffffffffffffffffffffffffffffffffffffffff1673ffffffffffffffffffffffffffffffffffffffff16815260200190815260200160002060008973ffffffffffffffffffffffffffffffffffffffff1673ffffffffffffffffffffffffffffffffffffffff1681526020019081526020016000205461191990919063ffffffff16565b6113a7565b6001905092915050565b6109d061139f565b73ffffffffffffffffffffffffffffffffffffffff166109ee610f6c565b73ffffffffffffffffffffffffffffffffffffffff1614610a77576040517f08c379a00000000000000000000000000000000000000000000000000000000081526004018080602001828103825260208152602001807f4f776e61626c653a2063616c6c6572206973206e6f7420746865206f776e657281525060200191505060405180910390fd5b60011515600660008373ffffffffffffffffffffffffffffffffffffffff1673ffffffffffffffffffffffffffffffffffffffff16815260200190815260200160002060009054906101000a900460ff16151514610ad457600080fd5b6000600660008373ffffffffffffffffffffffffffffffffffffffff1673ffffffffffffffffffffffffffffffffffffffff16815260200190815260200160002060006101000a81548160ff02191690831515021790555050565b60066020528060005260406000206000915054906101000a900460ff1681565b610b5761139f565b73ffffffffffffffffffffffffffffffffffffffff16610b75610f6c565b73ffffffffffffffffffffffffffffffffffffffff161480610be05750600660003373ffffffffffffffffffffffffffffffffffffffff1673ffffffffffffffffffffffffffffffffffffffff16815260200190815260200160002060009054906101000a900460ff165b610be957600080fd5b610bf382826119a1565b5050565b610bff61139f565b73ffffffffffffffffffffffffffffffffffffffff16610c1d610f6c565b73ffffffffffffffffffffffffffffffffffffffff1614610ca6576040517f08c379a00000000000000000000000000000000000000000000000000000000081526004018080602001828103825260208152602001807f4f776e61626c653a2063616c6c6572206973206e6f7420746865206f776e657281525060200191505060405180910390fd5b60001515600660008373ffffffffffffffffffffffffffffffffffffffff1673ffffffffffffffffffffffffffffffffffffffff16815260200190815260200160002060009054906101000a900460ff16151514610d0357600080fd5b6001600660008373ffffffffffffffffffffffffffffffffffffffff1673ffffffffffffffffffffffffffffffffffffffff16815260200190815260200160002060006101000a81548160ff02191690831515021790555050565b60008060008373ffffffffffffffffffffffffffffffffffffffff1673ffffffffffffffffffffffffffffffffffffffff168152602001908152602001600020549050919050565b610dae61139f565b73ffffffffffffffffffffffffffffffffffffffff16610dcc610f6c565b73ffffffffffffffffffffffffffffffffffffffff1614610e55576040517f08c379a00000000000000000000000000000000000000000000000000000000081526004018080602001828103825260208152602001807f4f776e61626c653a2063616c6c6572206973206e6f7420746865206f776e657281525060200191505060405180910390fd5b600073ffffffffffffffffffffffffffffffffffffffff16600560019054906101000a900473ffffffffffffffffffffffffffffffffffffffff1673ffffffffffffffffffffffffffffffffffffffff167f8be0079c531659141344cd1fd0a4f28419497f9722a3daafe3b4186f6b6457e060405160405180910390a36000600560016101000a81548173ffffffffffffffffffffffffffffffffffffffff021916908373ffffffffffffffffffffffffffffffffffffffff160217905550565b6000600660008373ffffffffffffffffffffffffffffffffffffffff1673ffffffffffffffffffffffffffffffffffffffff16815260200190815260200160002060009054906101000a900460ff169050919050565b6000600560019054906101000a900473ffffffffffffffffffffffffffffffffffffffff16905090565b606060048054600181600116156101000203166002900480601f01602080910402602001604051908101604052809291908181526020018280546001816001161561010002031660029004801561102e5780601f106110035761010080835404028352916020019161102e565b820191906000526020600020905b81548152906001019060200180831161101157829003601f168201915b5050505050905090565b60006110fb61104561139f565b846110f685604051806060016040528060258152602001611c70602591396001600061106f61139f565b73ffffffffffffffffffffffffffffffffffffffff1673ffffffffffffffffffffffffffffffffffffffff16815260200190815260200160002060008a73ffffffffffffffffffffffffffffffffffffffff1673ffffffffffffffffffffffffffffffffffffffff1681526020019081526020016000205461185f9092919063ffffffff16565b6113a7565b6001905092915050565b600061111961111261139f565b848461159e565b6001905092915050565b6000600160008473ffffffffffffffffffffffffffffffffffffffff1673ffffffffffffffffffffffffffffffffffffffff16815260200190815260200160002060008373ffffffffffffffffffffffffffffffffffffffff1673ffffffffffffffffffffffffffffffffffffffff16815260200190815260200160002054905092915050565b6111b261139f565b73ffffffffffffffffffffffffffffffffffffffff166111d0610f6c565b73ffffffffffffffffffffffffffffffffffffffff1614611259576040517f08c379a00000000000000000000000000000000000000000000000000000000081526004018080602001828103825260208152602001807f4f776e61626c653a2063616c6c6572206973206e6f7420746865206f776e657281525060200191505060405180910390fd5b600073ffffffffffffffffffffffffffffffffffffffff168173ffffffffffffffffffffffffffffffffffffffff1614156112df576040517f08c379a0000000000000000000000000000000000000000000000000000000008152600401808060200182810382526026815260200180611b916026913960400191505060405180910390fd5b8073ffffffffffffffffffffffffffffffffffffffff16600560019054906101000a900473ffffffffffffffffffffffffffffffffffffffff1673ffffffffffffffffffffffffffffffffffffffff167f8be0079c531659141344cd1fd0a4f28419497f9722a3daafe3b4186f6b6457e060405160405180910390a380600560016101000a81548173ffffffffffffffffffffffffffffffffffffffff021916908373ffffffffffffffffffffffffffffffffffffffff16021790555050565b600033905090565b600073ffffffffffffffffffffffffffffffffffffffff168373ffffffffffffffffffffffffffffffffffffffff16141561142d576040517f08c379a0000000000000000000000000000000000000000000000000000000008152600401808060200182810382526024815260200180611c4c6024913960400191505060405180910390fd5b600073ffffffffffffffffffffffffffffffffffffffff168273ffffffffffffffffffffffffffffffffffffffff1614156114b3576040517f08c379a0000000000000000000000000000000000000000000000000000000008152600401808060200182810382526022815260200180611bb76022913960400191505060405180910390fd5b80600160008573ffffffffffffffffffffffffffffffffffffffff1673ffffffffffffffffffffffffffffffffffffffff16815260200190815260200160002060008473ffffffffffffffffffffffffffffffffffffffff1673ffffffffffffffffffffffffffffffffffffffff168152602001908152602001600020819055508173ffffffffffffffffffffffffffffffffffffffff168373ffffffffffffffffffffffffffffffffffffffff167f8c5be1e5ebec7d5bd14f71427d1e84f3dd0314c0f7b2291e5b200ac8c7c3b925836040518082815260200191505060405180910390a3505050565b600073ffffffffffffffffffffffffffffffffffffffff168373ffffffffffffffffffffffffffffffffffffffff161415611624576040517f08c379a0000000000000000000000000000000000000000000000000000000008152600401808060200182810382526025815260200180611c276025913960400191505060405180910390fd5b600073ffffffffffffffffffffffffffffffffffffffff168273ffffffffffffffffffffffffffffffffffffffff1614156116aa576040517f08c379a0000000000000000000000000000000000000000000000000000000008152600401808060200182810382526023815260200180611b6e6023913960400191505060405180910390fd5b6116b5838383611b68565b61172081604051806060016040528060268152602001611bd9602691396000808773ffffffffffffffffffffffffffffffffffffffff1673ffffffffffffffffffffffffffffffffffffffff1681526020019081526020016000205461185f9092919063ffffffff16565b6000808573ffffffffffffffffffffffffffffffffffffffff1673ffffffffffffffffffffffffffffffffffffffff168152602001908152602001600020819055506117b3816000808573ffffffffffffffffffffffffffffffffffffffff1673ffffffffffffffffffffffffffffffffffffffff1681526020019081526020016000205461191990919063ffffffff16565b6000808473ffffffffffffffffffffffffffffffffffffffff1673ffffffffffffffffffffffffffffffffffffffff168152602001908152602001600020819055508173ffffffffffffffffffffffffffffffffffffffff168373ffffffffffffffffffffffffffffffffffffffff167fddf252ad1be2c89b69c2b068fc378daa952ba7f163c4a11628f55a4df523b3ef836040518082815260200191505060405180910390a3505050565b600083831115829061190c576040517f08c379a00000000000000000000000000000000000000000000000000000000081526004018080602001828103825283818151815260200191508051906020019080838360005b838110156118d15780820151818401526020810190506118b6565b50505050905090810190601f1680156118fe5780820380516001836020036101000a031916815260200191505b509250505060405180910390fd5b5082840390509392505050565b600080828401905083811015611997576040517f08c379a000000000000000000000000000000000000000000000000000000000815260040180806020018281038252601b8152602001807f536166654d6174683a206164646974696f6e206f766572666c6f77000000000081525060200191505060405180910390fd5b8091505092915050565b600073ffffffffffffffffffffffffffffffffffffffff168273ffffffffffffffffffffffffffffffffffffffff161415611a44576040517f08c379a000000000000000000000000000000000000000000000000000000000815260040180806020018281038252601f8152602001807f45524332303a206d696e7420746f20746865207a65726f20616464726573730081525060200191505060405180910390fd5b611a5060008383611b68565b611a658160025461191990919063ffffffff16565b600281905550611abc816000808573ffffffffffffffffffffffffffffffffffffffff1673ffffffffffffffffffffffffffffffffffffffff1681526020019081526020016000205461191990919063ffffffff16565b6000808473ffffffffffffffffffffffffffffffffffffffff1673ffffffffffffffffffffffffffffffffffffffff168152602001908152602001600020819055508173ffffffffffffffffffffffffffffffffffffffff16600073ffffffffffffffffffffffffffffffffffffffff167fddf252ad1be2c89b69c2b068fc378daa952ba7f163c4a11628f55a4df523b3ef836040518082815260200191505060405180910390a35050565b50505056fe45524332303a207472616e7366657220746f20746865207a65726f20616464726573734f776e61626c653a206e6577206f776e657220697320746865207a65726f206164647265737345524332303a20617070726f766520746f20746865207a65726f206164647265737345524332303a207472616e7366657220616d6f756e7420657863656564732062616c616e636545524332303a207472616e7366657220616d6f756e74206578636565647320616c6c6f77616e636545524332303a207472616e736665722066726f6d20746865207a65726f206164647265737345524332303a20617070726f76652066726f6d20746865207a65726f206164647265737345524332303a2064656372656173656420616c6c6f77616e63652062656c6f77207a65726fa26469706673582212207ad1e4ad6db885ee9dd7b30cfce610fcdc4d83359d48fcbe8b4c1cba10d9722864736f6c63430007060033",
  "immutableReferences": {},
  "source": "// SPDX-License-Identifier: UNLICENSED\npragma solidity 0.7.6;\n\nimport \"@openzeppelin/contracts/token/ERC20/IERC20.sol\";\nimport \"@openzeppelin/contracts/math/SafeMath.sol\";\nimport \"@openzeppelin/contracts/access/Ownable.sol\";\nimport \"./NVMC.sol\";\n\n/*\n    NVMCChief contract for Alyra DeFi #4\n*/\ncontract NVMCChief is Ownable {\n    using SafeMath for uint256;\n    NVMC contractNVMC = new NVMC();\n    \n    struct UserInfo {\n        uint256 deposited;\n        uint256 rewardsAlreadyConsidered;\n    }\n\n    mapping (address => UserInfo) users;\n    \n    IERC20 public depositToken; // eg. LP token\n    IERC20 public rewardToken;\n\n    // We are not using depositToken.balanceOf in order to prevent DOS attacks (attacker can make the total tokens staked very large)\n    // and to add a skim() functionality with which the owner can collect tokens which were transferred outside the stake mechanism.\n    uint256 public totalStaked;\n\n    uint256 public rewardPeriodEndTimestamp;\n    uint256 public rewardPerSecond; // multiplied by 1e7, to make up for division by 24*60*60\n\n    uint256 public lastRewardTimestamp;\n    uint256 public accumulatedRewardPerShare; // multiplied by 1e12, same as MasterChef\n\n    event AddRewards(uint256 amount, uint256 lengthInDays);\n    event ClaimReward(address indexed user, uint256 amount);\n    event Deposit(address indexed user, uint256 amount);\n    event Withdraw(address indexed user, uint256 amount);\n    event Skim(uint256 amount);\n    \n\n    constructor(address _depositToken, address _rewardToken) {\n        depositToken = IERC20(_depositToken);\n        rewardToken = IERC20(_rewardToken);\n    }\n\n    // Owner should have approved ERC20 before.\n    function addRewards(uint256 _rewardsAmount, uint256 _lengthInDays)\n    external onlyOwner {\n        require(block.timestamp > rewardPeriodEndTimestamp, \"NVMCChief: can't add rewards before period finished\");\n        updateRewards();\n        rewardPeriodEndTimestamp = block.timestamp.add(_lengthInDays.mul(24*60*60));\n        rewardPerSecond = _rewardsAmount.mul(1e7).div(_lengthInDays).div(24*60*60);\n        require(rewardToken.transferFrom(msg.sender, address(this), _rewardsAmount), \"NVMCChief: transfer failed\");\n        emit AddRewards(_rewardsAmount, _lengthInDays);\n    }\n\n    // Main function to keep a balance of the rewards.\n    // Is called before each user action (stake, unstake, claim).\n    // See top of file for high level description.\n    function updateRewards()\n    public {\n        // If no staking period active, or already updated rewards after staking ended, or nobody staked anything - nothing to do\n        if (block.timestamp <= lastRewardTimestamp) {\n            return;\n        }\n        if ((totalStaked == 0) || lastRewardTimestamp > rewardPeriodEndTimestamp) {\n            lastRewardTimestamp = block.timestamp;\n            return;\n        }\n\n        // If staking period ended, calculate time delta based on the time the staking ended (and not after)\n        uint256 endingTime;\n        if (block.timestamp > rewardPeriodEndTimestamp) {\n            endingTime = rewardPeriodEndTimestamp;\n        } else {\n            endingTime = block.timestamp;\n        }\n        uint256 secondsSinceLastRewardUpdate = endingTime.sub(lastRewardTimestamp);\n        uint256 totalNewReward = secondsSinceLastRewardUpdate.mul(rewardPerSecond); // For everybody in the pool\n        // The next line will calculate the reward for each staked token in the pool.\n        //  So when a specific user will claim his rewards,\n        //  we will basically multiply this var by the amount the user staked.\n        accumulatedRewardPerShare = accumulatedRewardPerShare.add(totalNewReward.mul(1e12).div(totalStaked));\n        lastRewardTimestamp = block.timestamp;\n        if (block.timestamp > rewardPeriodEndTimestamp) {\n            rewardPerSecond = 0;\n        }\n    }\n\n    // Will deposit specified amount and also send rewards.\n    // User should have approved ERC20 before.\n    function deposit(uint256 _amount)\n    external {\n        UserInfo storage user = users[msg.sender];\n        updateRewards();\n        // Send reward for previous deposits\n        if (user.deposited > 0) {\n            uint256 pending = user.deposited.mul(accumulatedRewardPerShare).div(1e12).div(1e7).sub(user.rewardsAlreadyConsidered);\n            require(rewardToken.transfer(msg.sender, pending), \"NVMCChief: transfer failed\");\n            emit ClaimReward(msg.sender, pending);\n        }\n        user.deposited = user.deposited.add(_amount);\n        totalStaked = totalStaked.add(_amount);\n        user.rewardsAlreadyConsidered = user.deposited.mul(accumulatedRewardPerShare).div(1e12).div(1e7);\n        require(depositToken.transferFrom(msg.sender, address(this), _amount), \"NVMCChief: transferFrom failed\");\n        emit Deposit(msg.sender, _amount);\n    }\n    \n\n    // Will withdraw the specified amount and also send rewards.\n    function withdraw(uint256 _amount)\n    external {\n        UserInfo storage user = users[msg.sender];\n        require(user.deposited >= _amount, \"NVMCChief: balance not enough\");\n        updateRewards();\n        // Send reward for previous deposits\n        uint256 pending = user.deposited.mul(accumulatedRewardPerShare).div(1e12).div(1e7).sub(user.rewardsAlreadyConsidered);\n        require(rewardToken.transfer(msg.sender, pending), \"NVMCChief: reward transfer failed\");\n        emit ClaimReward(msg.sender, pending);\n        user.deposited = user.deposited.sub(_amount);\n        totalStaked = totalStaked.sub(_amount);\n        user.rewardsAlreadyConsidered = user.deposited.mul(accumulatedRewardPerShare).div(1e12).div(1e7);\n        require(depositToken.transfer(msg.sender, _amount), \"NVMCChief: deposit withdrawal failed\");\n        emit Withdraw(msg.sender, _amount);\n    }\n\n    // Will just send rewards.\n    function claim()\n    external {\n        UserInfo storage user = users[msg.sender];\n        if (user.deposited == 0)\n            return;\n\n        updateRewards();\n        uint256 pending = user.deposited.mul(accumulatedRewardPerShare).div(1e12).div(1e7).sub(user.rewardsAlreadyConsidered);\n        require(rewardToken.transfer(msg.sender, pending), \"NVMCChief: transfer failed\");\n        emit ClaimReward(msg.sender, pending);\n        user.rewardsAlreadyConsidered = user.deposited.mul(accumulatedRewardPerShare).div(1e12).div(1e7);\n        \n    }\n\n    // Will collect depositTokens (LP tokens) that were sent to the contract\n    //  Outside of the staking mechanism.\n    function skim()\n    external onlyOwner {\n        uint256 depositTokenBalance = depositToken.balanceOf(address(this));\n        if (depositTokenBalance > totalStaked) {\n            uint256 amount = depositTokenBalance.sub(totalStaked);\n            require(depositToken.transfer(msg.sender, amount), \"NVMCChief: transfer failed\");\n            emit Skim(amount);\n        }\n    }\n\n    /* \n        ####################################################\n        ################## View functions ##################\n        ####################################################\n\n    */\n\n    // Return the user's pending rewards.\n    function pendingRewards(address _user)\n    public view returns (uint256) {\n        UserInfo storage user = users[_user];\n        uint256 accumulated = accumulatedRewardPerShare;\n        if (block.timestamp > lastRewardTimestamp && lastRewardTimestamp <= rewardPeriodEndTimestamp && totalStaked != 0) {\n            uint256 endingTime;\n            if (block.timestamp > rewardPeriodEndTimestamp) {\n                endingTime = rewardPeriodEndTimestamp;\n            } else {\n                endingTime = block.timestamp;\n            }\n            uint256 secondsSinceLastRewardUpdate = endingTime.sub(lastRewardTimestamp);\n            uint256 totalNewReward = secondsSinceLastRewardUpdate.mul(rewardPerSecond);\n            accumulated = accumulated.add(totalNewReward.mul(1e12).div(totalStaked));\n        }\n        return user.deposited.mul(accumulated).div(1e12).div(1e7).sub(user.rewardsAlreadyConsidered);\n    }\n\n    // Returns misc details for the front end.\n    function getFrontendView()\n    external view returns (uint256 _rewardPerSecond, uint256 _secondsLeft, uint256 _deposited, uint256 _pending) {\n        if (block.timestamp <= rewardPeriodEndTimestamp) {\n            _secondsLeft = rewardPeriodEndTimestamp.sub(block.timestamp); \n            _rewardPerSecond = rewardPerSecond.div(1e7);\n        } // else, anyway these values will default to 0\n        _deposited = users[msg.sender].deposited;\n        _pending = pendingRewards(msg.sender);\n    }\n}\n",
  "sourcePath": "/Users/nicolasvilla/project/defi-alyra/staking/contracts/NVMCChief.sol",
  "compiler": {
    "name": "solc",
    "version": "0.7.6+commit.7338295f.Emscripten.clang"
  },
  "schemaVersion": "3.4.3",
  "updatedAt": "2021-12-07T18:34:22.723Z",
  "devdoc": {
    "kind": "dev",
    "methods": {
      "owner()": {
        "details": "Returns the address of the current owner."
      },
      "renounceOwnership()": {
        "details": "Leaves the contract without owner. It will not be possible to call `onlyOwner` functions anymore. Can only be called by the current owner. NOTE: Renouncing ownership will leave the contract without an owner, thereby removing any functionality that is only available to the owner."
      },
      "transferOwnership(address)": {
        "details": "Transfers ownership of the contract to a new account (`newOwner`). Can only be called by the current owner."
      }
    },
    "version": 1
  },
  "userdoc": {
    "kind": "user",
    "methods": {},
    "version": 1
  }
}